:020000040800F2
:1000000070480020E90200080F1E00086D1C00085F
:100010000D1E0008F50600086D2400080000000011
:10002000000000000000000000000000290200089D
:10003000B50700080000000085020008391E00080E
:100040000303000803030008030300080303000878
:100050000303000803030008030300080303000868
:100060000303000803030008030300080303000858
:10007000F906000803030008050700080303000849
:100080000303000803030008030300080303000838
:100090000303000803030008030300080303000828
:1000A0000303000803030008030300080303000818
:1000B0000303000803030008F51E000803030008FB
:1000C00003030008030300080303000803030008F8
:1000D00003030008030300080303000803030008E8
:1000E00003030008030300080303000803030008D8
:1000F00003030008030300080303000803030008C8
:1001000003030008030300080303000803030008B7
:1001100003030008030300080303000803030008A7
:100120000303000803030008030300080303000897
:100130000303000803030008030300080303000887
:100140000303000803030008030300080303000877
:100150000303000803030008030300080303000867
:100160000303000803030008030300080303000857
:100170000303000803030008030300080000000055
:10018000030300080303000800F002F800F03CF845
:100190000AA090E8000C82448344AAF10107DA45E2
:1001A00001D100F031F8AFF2090EBAE80F0013F0F8
:1001B000010F18BFFB1A43F001031847FC39000078
:1001C0001C3A0000103A24BF78C878C1FAD8520708
:1001D00024BF30C830C144BF04680C6070470000C1
:1001E0000023002400250026103A28BF78C1FBD840
:1001F000520728BF30C148BF0B6070471FB503F0DE
:1002000089FC1FBD10B510BD00F0A6F91146FFF71F
:10021000F5FF02F043F900F0C4F903B4FFF7F2FF71
:1002200003BC00F0CBF900002C4B19680868B0E85B
:10023000F04F80F30988BFF36F8F4FF0000080F319
:10024000118870470000000008480068006880F3CB
:1002500008884FF0000080F3148862B661B6BFF3DF
:100260004F8FBFF36F8F00DF00BF00BF08ED00E0CE
:10027000DFF80C00016841F470010160704700BFB5
:1002800088ED00E0EFF30980BFF36F8F134B1A681E
:100290001EF0100F08BF20ED108A20E9F04F10600B
:1002A00009B44FF0500080F31188BFF34F8FBFF3B4
:1002B0006F8F02F0B3FE4FF0000080F3118809BC8D
:1002C00019680868B0E8F04F1EF0100F08BFB0ECD6
:1002D000108A80F30988BFF36F8F704728000020D1
:1002E000EFF3058070470000094880470948004740
:1002F000FEE7FEE7FEE7FEE7FEE7FEE7FEE7FEE7D6
:10030000FEE7FEE704480549054A064B7047000032
:10031000E51E000889010008704200207048002096
:10032000704400207044002053EA020C00F0698001
:100330002DE9F04B4FF00006002B1FBFB3FA83F5F9
:1003400003FA05F424FA05F65E4012BF1643B2FA2A
:1003500082F502FA05F4C5F120051EBF22FA05FC5C
:1003600044EA0C04203556EA044C4FEA144418BF02
:10037000641C4FF000084FF00009904271EB030C31
:1003800039D3002919BFB1FA81F701FA07F6B0FA9B
:1003900080F700FA07F6C7F120071EBF20FA07FC16
:1003A00046EA0C062037B6FBF4FCA7EB0507103F26
:1003B00007F01F0BCBF120060CFA0BFB2CFA06F60C
:1003C00044BFB3460026202FA4BF5E464FF0000B6B
:1003D0005BEA060C08BF4FF0010B19EB0B09ABFBF6
:1003E000027C48EB0608C01B06FB02CC0BFB03CCCF
:1003F00071EB0C01C1E70B46024641464846BDE899
:10040000F08B13B54FF000004FF00001AFF3008008
:10041000BDE81C407047032A40F2308010F0030C06
:1004200000F0158011F8013BBCF1020F624498BF47
:1004300011F801CB00F8013B38BF11F8013BA2F1E4
:10044000040298BF00F801CB38BF00F8013B11F05F
:10045000030300F02580083AC0F0088051F8043BFF
:10046000083A51F804CBA0E80810F5E7121D5CBF6C
:1004700051F8043B40F8043BAFF30080D20724BF9F
:1004800011F8013B11F801CB48BF11F8012B24BF33
:1004900000F8013B00F801CB48BF00F8012B704782
:1004A00010B5203AC0F00B80B1E81850203AA0E80F
:1004B0001850B1E81850A0E81850BFF4F5AF5FEA43
:1004C000027C24BFB1E81850A0E8185044BF18C9F6
:1004D00018C0BDE810405FEA827C24BF51F8043B9D
:1004E00040F8043B08BF7047D20728BF31F8023BF1
:1004F00048BF11F8012B28BF20F8023B48BF00F885
:10050000012B70474FF0000200B513469446964603
:10051000203922BFA0E80C50A0E80C50B1F1200116
:10052000BFF4F7AF090728BFA0E80C5048BF0CC0C4
:100530005DF804EB890028BF40F8042B08BF704722
:1005400048BF20F8022B11F0804F18BF00F8012B94
:100550007047704770477047754600F02BF8AE46FD
:1005600005006946534620F00700854618B020B5BF
:10057000FFF7C8FEBDE820404FF000064FF000072F
:100580004FF000084FF0000B21F00701AC46ACE83B
:10059000C009ACE8C009ACE8C009ACE8C0098D46A8
:1005A000704710B50446AFF300802046BDE8104008
:1005B000FFF733BE004870470C4200200149182065
:1005C000ABBEFEE72600020070470000464910B5AA
:1005D0004A6822F440324A604A6843681A434A60D3
:1005E00001684A6822F480724A6001684A680369B7
:1005F00042EA03224A6001684A6822F040724A6077
:1006000001684A6883681A434A6001688A6822F46C
:1006100000628A6001688A68C3681A438A60816AD6
:100620006FF07062D14201688A6822F070628A605D
:1006300001688A680CD0836A1A438A6001688A68F4
:1006400022F040528A6001688A68C36A1A4301E056
:1006500022F040528A6001688A6822F002028A60B1
:1006600001688A68037E42EA43028A6090F820109B
:10067000002901684A680FD042F400624A600168AC
:100680004A6822F460424A6001684A68174C436A2B
:1006900004EB43331A4301E022F400624A6001682C
:1006A000CA6A22F47002CA620168CA6A838B104C5B
:1006B00004EB03531A43CA6201688A6822F4007289
:1006C0008A6001688A6890F8303042EA43228A6082
:1006D00001688A6822F480628A6001688A684069D9
:1006E00042EA8020886010BD0023014000E0FFFF47
:1006F0000000F0FFFEE70000014800F083BA0000B0
:10070000C0010020014800F07DBA00002002002056
:1007100001681823CAB2103AB2FBF3F2054B6FF32B
:100720000901032A9B5CC36500D9091D8165084640
:1007300070470000743B000810B5014600208B692B
:100740008A6A4FF0C07453B1B3F5005F15D072B12F
:10075000012A0CD0022A0AD0032A09D104E01AB1D6
:10076000012A06D0022A03D1C96AC90100D5012095
:1007700010BDC96AA142FAD010BD002AF7D0012AE3
:10078000F2D0022AF3D0032AF3D010BD30B50468AA
:10079000256825F480252560046863608368402B04
:1007A000036803D099600068C26030BD9A60006839
:1007B000C16030BD704772B6FEE7000078B5002416
:1007C000009490F83C20012A19D0012280F83C20A6
:1007D0000A6807230568092A13D9EE680A3A02EB6A
:1007E000420293409E43EE600B788A680A3B03EB1B
:1007F00043039A400368DD682A43DA6010E0022070
:1008000078BD2E6902EB420293409E432E610B7825
:100810008A6803EB43039A4003681D692A431A61FF
:100820004A681F23072A13D205686E6B521E02EB1B
:10083000820293409E436E630B790A885B1E92B2DC
:1008400003EB83039A4003685D6B2A435A6327E0F6
:1008500005680D2A12D22E6BD21F02EB8202934042
:100860009E432E630B790A88DB1F92B203EB83034E
:100870009A4003681D6B2A431A6311E0EE6A0D3A31
:1008800002EB820293409E43EE620B790A880D3B95
:1008900092B203EB83039A400368DD6A2A43DA626B
:1008A000164B0568144A9D4206D10D68122D03D1DE
:1008B000556845F48005556005689D4218D10B6860
:1008C000102B01D0112B13D1536843F40003536054
:1008D000096810290CD10A490A4A0968B1FBF2F1EA
:1008E00001EB8101490000E0491E00910029FBD184
:1008F00080F83C40002078BD0023014000200140EA
:100900002400002040420F000068C06C704770B5A2
:1009100004004FF0000503D0206C002610B107E062
:10092000012070BD204600F01DF8666484F83C602C
:10093000206CC00610D4206C20F4885040F00200D7
:1009400020642046FFF742FE6664206C20F002001F
:1009500040F00100206400E0012584F83C60284656
:1009600070BD000070B586B0044614216846FFF7DC
:10097000C9FD274A254E256800232549143A03243A
:100980002448B54211D10D6845F480750D600968A1
:1009900001F480710591116841F001011160116845
:1009A00001F001010591012113E01B4EB54218D160
:1009B0000D6845F400750D60096801F4007105913A
:1009C000116841F001011160116801F00101059108
:1009D0000221CDE900140293694600F085FA06B0C1
:1009E00070BD0E4EB542FAD10D6845F480650D60BC
:1009F000096801F480610591116841F001011160FD
:100A0000116801F0010105910421E2E70020014095
:100A10004438024000000240002101400022014011
:100A20002DE9F041044600680D4681684FF000074B
:100A300049050BD58068C00508D5206C40F0200022
:100A4000206484F83C700120BDE8F08100F04AFB8E
:100A5000064613E0681C11D025B100F043FB801B53
:100A6000A8420BD920680068800707D4206C40F0AA
:100A70000400206484F83C700320E5E720680068E7
:100A80008007E7D521686FF012000860206C40F401
:100A9000007020642068816811F0405F13D1217ECE
:100AA00089B9C16A11F4700F02D0806840050AD478
:100AB000206C20F480702064206CC00403D4206C6F
:100AC00040F0010020640020BEE7000018B50021BE
:100AD000009190F83C20012A07D0012280F83C20A8
:100AE00002689368DB0702D011E0022018BD93680A
:100AF00043F0010393602E4A2E4B1268B2FBF3F2CF
:100B000002EB420200E0521E0092002AFBD1026872
:100B10009368DB0742D0036C40F20164A34343F4C3
:100B20008073036453685B0505D5036C23F400539D
:100B300043F480530364036CDB0404D5436C23F05B
:100B40000603436400E0416480F83C101A496FF0EA
:100B50002203136049680068CA06184906D0884213
:100B600024D1816811F0405F13D01FE08842F8D093
:100B7000134A904203D1D1F80423D206F1D0114A8E
:100B8000904213D1D1F8041301F01F011029E8D3CA
:100B90000CE0816841F08041816007E0016C41F028
:100BA00010010164416C41F001014164002018BD55
:100BB0002400002040420F0000230140002001409B
:100BC000002101400022014090F83C1001290CD086
:100BD000012180F83C1001688A6822F001028A60D5
:100BE00001688968C90702D007E002207047016CDC
:100BF00021F4885141F001010164002180F83C108A
:100C0000084670472DE9F84304464FF00009CDF837
:100C1000009063484FF41651A56D0068B0FBF1F7E2
:100C20002E6894F85C10082000FA01F131420FD0D0
:100C300021680A6852070BD50A6822F004020A608C
:100C400094F85C108840A860606D40F00100606519
:100C500094F85C104FF0010808FA01F0304208D017
:100C600021684969090604D5A860606D40F002005A
:100C7000606594F85C1004208840304208D02168F8
:100C80000968890704D5A860606D40F004006065BC
:100C900094F85C1010208840304218D02168096810
:100CA000090714D5A86020680168490304D50068C5
:100CB000000308D5A16C07E00168C90503D40168E9
:100CC00021F008010160216C09B12046884794F8A1
:100CD0005C1020208840304231D021680968C90664
:100CE0002DD5A86094F8350005282068016806D045
:100CF000490347D5006800031DD4616C1CE021F056
:100D0000160101602068416921F080014161206C79
:100D100008B9A06C20B12068016821F008010160C9
:100D200094F85C103F208840A86084F8358084F8EF
:100D30003490216D1FE0E16B09B120468847606D5A
:100D400000282BD0606DC00714D0052084F8350032
:100D50002068016821F0010101600098401C0090AA
:100D6000B84203D820680068C007F6D184F83580FF
:100D700084F83490E16C002910D001B02046BDE821
:100D8000F04308470168C905D5D4016821F0100176
:100D9000016084F8358084F83490CCE7BDE8F883AE
:100DA000240000202DE9F041044600F09BF906469E
:100DB0005CB1022084F83500002584F834502068A6
:100DC000016821F0010101600DE00120BDE8F08122
:100DD00000F088F9801B052805D9202060650320D4
:100DE00084F83500F2E720680068C007F0D1226877
:100DF000116820480140D4E901031843D4E90336BF
:100E00003343184363691843A3691843E3691843DC
:100E1000236A18430843616A042903D1D4E90B13F8
:100E200019430843106020684069666A20F0070192
:100E300030460E43012704280CD1A06A0643E06A1D
:100E400040B12046FFF778FC20B14020606584F86F
:100E50003570BAE7206846612046FFF759FC94F8E0
:100E60005C203F2191408160656584F835700020E9
:100E7000ACE700003F8010F02DE9F0410446866D9C
:100E800090F83400002501280DD0012084F83400AA
:100E900094F835700020012F07D084F83400022523
:100EA0002846BDE8F0810220FBE7022784F8357070
:100EB00060652046FFF76AFC94F85C103F2088408C
:100EC000B0602068016841F016010160206C20B11B
:100ED0002068016841F0080101602068016841F064
:100EE00001010160DCE700002DE9F84FDFF8BCA14B
:100EF0000022012503264FF00F090AF1040BAAF185
:100F0000040E00BF0B6805FA02F42340A34270D11F
:100F10000F7907F00307012F01D0022F16D1876840
:100F20004FEA420806FA08FC27EA0C07D1F80CC081
:100F30000CFA08FC4CEA070CC0F808C04768A74345
:100F40000C79C4F3001494403C4344600C79E443AE
:100F5000A4070AD0C4684FEA420C06FA0CF7BC4357
:100F60008F6807FA0CF72743C7600C7904F0030475
:100F7000022C12D1D40800EB840CDCF82040570777
:100F8000FF0E09FA07F824EA0804D1F8108008FADD
:100F900007F848EA0408CCF8208004684FEA420CBD
:100FA00006FA0CF7BC430F7907F0030707FA0CF7B2
:100FB000274307604C6814F4403F70D03C4C2768CE
:100FC00047F480472760246822F0030704F4804434
:100FD0000094384C07EB040CDCF8084897074FEAFC
:100FE000177809FA08F7BC43334FB84202D10027FB
:100FF00024E054E0314FB84201D101271EE0304FC8
:10100000B84201D1022719E02E4FB84201D103277F
:1010100014E02D4FB84201D104270FE02B4FB84206
:1010200001D105270AE02A4FB84201D1062705E081
:10103000284FB84201D1072700E0082707FA08F730
:101040002743CCF80878DAF800405746D1F804C0B6
:101050009C435FEACC2C00D51C433C60DBF800408D
:101060005F46D1F804C09C435FEA8C2C00D51C433A
:101070003C60DEF800407746D1F804C09C435FEA4C
:101080008C3C00D51C433C60084F083F3C68D1F8BD
:1010900004C09C435FEACC3C00D51C433C60521C1E
:1010A000102AFFF42FAFBDE8F88F0000083C014084
:1010B0004438024000300140000002400004024079
:1010C00000080240000C02400010024000140240E0
:1010D00000180240001C02400AB1816170470904F7
:1010E000FBE70000014880687047000018000020FE
:1010F000024881680278114481607047180000201E
:101100000B4810B5016841F400710160016841F4B9
:1011100080610160016841F480710160032000F08A
:101120009FF80F2000F006F800F050F8002010BDE6
:10113000003C024030B505461F4887B000240168D6
:1011400041F004010160006806A900F0040000906D
:1011500001A800F031F90498A8B100F04DF9400061
:101160001649174AB0FBF1F11648491E026040F2D9
:10117000E732C0E90324C0E90114846100F046FBB2
:10118000040003D015E000F037F9E9E70D4800F05E
:101190006BFB04000DD11E2000F034F8102D07D297
:1011A000002229461E2000F03BF80748056000E0B9
:1011B000012407B0204630BD4038024040420F00B5
:1011C00000080040D40400201C0000200C4882B01D
:1011D000016841F480410160006800F480400090A3
:1011E0000748001F016841F080510160006800223B
:1011F00000F0805000900F21901E02B000F010B857
:1012000044380240002809DB00F01F020121914010
:101210004009800000F1E020C0F800117047000094
:10122000F0B40E4B1B680C46C3F30223C3F1070551
:10123000042D00D90425191D072901D2002300E03F
:10124000DB1E012606FA05F1491E214099409E4009
:10125000761E16403143F0BC01F009B90CED00E0F8
:10126000064900F0070208684FF6FF03184040EAFD
:101270000220034A10430860704700000CED00E0B4
:101280000000FA052DE9F0470E46050065D0DFF8AD
:101290001481D8F80000F7B200F00700B04207D27E
:1012A00088F80070D8F8000000F00700B04254D170
:1012B00028683D4C810712D5400703D5206840F4CB
:1012C000E05020602878000703D5206840F4604093
:1012D00020602068A96820F0F0000843206028788A
:1012E000C0072DD0304968680839012812D002287B
:1012F00013D0032811D00968890700292DDA216845
:1013000021F0030101432160FFF7ECFE814641F229
:10131000883A0EE009688903EFE709688901ECE77C
:10132000FFF7E0FEA0EB0901514502D90320BDE81B
:10133000F0872068696800F00C00B0EB810FEFD1F6
:10134000D8F80010404601F00701B14207D90770F4
:10135000006800F00700B04201D00120E7E72878DC
:10136000400705D52068E96820F4E0500843206074
:101370002878000706D52068296920F4604040EAF3
:10138000C100206000F058F82168084AC1F3031139
:10139000515CC8400649086006480068FFF7CAFE6D
:1013A0000020C4E7003C0240083802407C3B0008B3
:1013B000240000201C0000200F2202600C4A136849
:1013C00003F003034360136803F0F00383601368C2
:1013D00003F4E053C36012684FF4E05303EAD2020F
:1013E00002610448006800F00700086070470000D0
:1013F00008380240003C024004480549006809687A
:10140000044AC1F38221515CC84070472400002087
:10141000083802408C3B0008044805490068096808
:10142000044AC1F34231515CC84070472400002097
:10143000083802408C3B0008154810B5006810F0D1
:101440000C02144813D01449042A0FD0082A0ED1D4
:101450000F4C241F2268236802F03F025B0207D56D
:101460002068C0F38810A0FB010106E0084610BD0B
:101470002168C1F38811A1FB00010023FEF754FF8E
:101480002168C1F30141491C4900B0FBF1F010BDD6
:10149000083802400024F40040787D012DE9F84F1F
:1014A00004006ED02078DFF84C93C007A9F1040542
:1014B0004AD009F104000168C1F38101012908D073
:1014C0000068C0F3810002280AD1D9F80000400268
:1014D00006D52868800337D560680028E1D033E05E
:1014E0006068B0F5803F10D0B0F5A02F286810D00C
:1014F00020F480302860286820F48020286060680C
:10150000A8B1FFF7EFFD06460DE0286840F48030F3
:10151000F4E740F480202860F7E700BFFFF7E2FD22
:10152000801B642873D828688003F7D50CE0FFF788
:10153000D9FD064605E000BFFFF7D4FD801B6428F7
:10154000F0D828688003F7D42078DFF8AC828007D1
:101550004FF0000A3ED5A748001D016811F00C0F9E
:1015600008D00068C0F3810002280BD1D9F8000030
:10157000400207D42868800716D5E068012800D10A
:1015800012E033E1E068B8B10120C8F80000FFF7CD
:10159000A9FD064605E000BFFFF7A4FD801B022859
:1015A000C0D828688007F7D52868216920F0F8009E
:1015B00040EAC10028600DE0C8F800A0FFF792FDE6
:1015C000064604E0FFF78EFD801B02281FD828681E
:1015D0008007F7D42078000722D5864F87486169B5
:1015E000703771B101210160FFF77CFD064604E010
:1015F000FFF778FD801B022809D838688007F7D5E7
:101600000EE0C0F800A0FFF76DFD064605E082E0A1
:10161000FFF768FD801B02287DD838688007F7D463
:101620002078400768D5DFF8CCB100270BF13C0BE0
:10163000DBF80000C0000BD4DBF8001041F0805153
:10164000CBF80010DBF80000012700F0805000907C
:101650006B4E3068C00510D4306840F48070306044
:10166000FFF740FD009005E0FFF73CFD0099401AB0
:10167000022850D83068C005F6D55E4EA0686C369A
:1016800001280FD00528306810D020F0010030600C
:10169000306820F004003060A068B8B1FFF722FD88
:1016A00000900FE0306840F00100F4E740F00400E3
:1016B0003060F7E7FFF716FD0099411A41F28830D4
:1016C000814266D830688007F4D50EE0FFF70AFD46
:1016D000009007E0FFF706FD0099411A41F28830BB
:1016E000814256D830688007F4D42FB1DBF800105F
:1016F00021F08051CBF80010A069C8B33D49091D05
:101700000968C1F3810102294AD00228504607D056
:10171000C8F8600000E03CE0FFF7E4FC04463BE072
:101720004746C8F86000FFF7DDFC064605E000BF4D
:10173000FFF7D8FC801B02282BD828688001F7D43B
:10174000D4E907010843A16A2E4A490802EB014186
:10175000626A41EA8211084394F82C1040EA016160
:10176000C9F8001001203866FFF7BCFC044606E00B
:101770003EE000BFFFF7B6FC001B022809D828682E
:101780008001F7D534E000BFFFF7ACFC001B022856
:1017900002D90320BDE8F88F28688001F4D427E03F
:1017A0000128F7D0D9F80000E26900F480019142E5
:1017B0001CD1226A00F03F01914217D147F6C07157
:1017C000626A0140B1EB821F10D1A26A4FF0FF3371
:1017D00000F4403103EB5202B1EB024F06D194F812
:1017E0002C1000F07060B0EB016F01D00120D1E748
:1017F0000020CFE70438024000004742800E4742F5
:10180000007000400000FFFF7047704710B50400F3
:1018100003D094F83D0010B107E0012010BD002076
:1018200084F83C00204600F01EF8022084F83D00B9
:10183000211D206800F064FB012084F8460084F834
:101840003E0084F83F0084F8400084F8410084F8AA
:10185000420084F8430084F8440084F8450084F88A
:101860003D00002010BD704790F83D10012901D0C7
:1018700001207047022180F83D100168CA6842F0DB
:101880000102CA6000681149884214D0B0F1804F4B
:1018900011D00F4988420ED00E4988420BD00E4914
:1018A000884208D00D49884205D00D49884202D0AF
:1018B0000C49884204D1816801F00701062903D050
:1018C000016841F001010160002070470000014003
:1018D0000004004000080040000C004000040140EB
:1018E0000040014000180040704770B50446006891
:1018F00001694FF00005C943890715D4C168C94380
:10190000890711D4E91E01610120207720688069D0
:101910008007204602D0FFF7E7FF04E000F098F8C8
:10192000204600F096F8257720680169C9434907E9
:1019300017D4C168C943490713D46FF0040101618A
:10194000022020772068806910F4407F204602D072
:10195000FFF7CAFF04E000F07BF8204600F079F8BA
:10196000257720680169C943090716D4C168C943AE
:10197000090712D46FF00801016104202077206864
:10198000C0698007204602D0FFF7AEFF04E000F0F8
:101990005FF8204600F05DF8257720680169C943AB
:1019A000C90617D4C168C943C90613D46FF0100122
:1019B0000161082020772068C06910F4407F20462C
:1019C00002D0FFF791FF04E000F042F8204600F05B
:1019D00040F8257720680169C943C90708D1C16863
:1019E000C943C90704D1891E0161204600F032F8BD
:1019F00020680169C943090609D4C168C9430906B9
:101A000005D46FF0800101612046FFF7FDFE2068DC
:101A10000169C943490609D4C168C943490605D4C7
:101A20006FF040010161204600F01EF82068016956
:101A3000C94389060BD4C168C943890607D46FF02E
:101A4000200101612046BDE87040FFF7DEBE70BD99
:101A50007047704700680349884201D1FFF748BBCF
:101A6000704700000008004070477047704770B52D
:101A7000040004D094F83D00002510B106E00120D8
:101A800070BD84F83C50204600F022F8242084F8F1
:101A90003D002068C16821F40051C160204600F07B
:101AA00015FC2068016921F49041016120684169B9
:101AB00021F02A0141612068C16841F40051C160F0
:101AC0002564202084F83D0084F83E00002070BD8D
:101AD0002DE9F04387B0064614216846FEF712FD53
:101AE0002C493068884251D12B480024016841F4C8
:101AF00080210160006800F480200590264810389D
:101B0000016841F0080101600068694600F00800C2
:101B100005904FF4407000900220CDE901040320AD
:101B20000390072004901D48FFF7DEF91D4D1C4867
:101B30004FF000672860C5E901744FF48068C5E97B
:101B400003484FF480796C61C5E906492C62284648
:101B50006C62FFF727F908B1FEF72DFEB563AE639F
:101B60000F48114D3030E5E802074020A5E811018B
:101B70000D4845F81449C5E906492C626C62FFF727
:101B800011F908B1FEF717FE7563AE6307B0BDE843
:101B9000F08300000048004040380240000C024042
:101BA00028600240C00100202002002090F83E3052
:101BB000202B0ED159B152B190F83C30012B08D0F6
:101BC000012380F83C300023036300F005BC0120B2
:101BD00070470220704770477047000070B5044698
:101BE00090F83D00202836D191B38AB394F83C0098
:101BF000012830D0012084F83C002162A284E284D4
:101C000000252564212084F83D00636B1348D863C8
:101C1000636B13481864636B1248D864606B134697
:101C200005652668606B321DFFF726F921686FF0A5
:101C30004000086084F83C502068143050E8001FD1
:101C400041F0800140E80012002AF5D1002070BD6B
:101C5000FFE70120FBE70220F9E700001722000858
:101C6000592200083121000870477047FEE7000044
:101C70007FB5002414480094019402941149039400
:101C8000C0E9001484600461047680F820400F49A4
:101C9000C0E90A140125C561C46080F8304045617F
:101CA000FEF735FE08B172B6FEE7CDE9004569469C
:101CB00005480294FEF782FD002801D072B6FEE7C7
:101CC0007FBD000000200140900000200100000FB7
:101CD0007FB50024144800940194029411490394A0
:101CE000C0E9001484600461047680F820400F4944
:101CF000C0E90A140125C561C46080F8304045611F
:101D0000FEF705FE08B172B6FEE70095CDE9015475
:101D100069460548FEF752FD002801D072B6FEE77D
:101D20007FBD000000210140D80000200100000F0D
:101D30007FB500241448009401940294114903943F
:101D4000C0E9001484600461047680F820400F49E3
:101D5000C0E90A140125C561C46080F830404561BE
:101D6000FEF7D5FD08B172B6FEE70220CDE9000509
:101D7000694602940448FEF721FD002801D072B69E
:101D8000FEE77FBD00220140200100200100000F7E
:101D900030B587B014216846FEF7B4FB194800241B
:101DA000016841F080010160016801F08001059146
:101DB000016841F001010160016801F00101059134
:101DC000016841F008010160016801F00801059116
:101DD000016841F00201016000680B4D00F0020053
:101DE00005900022F0212846FFF776F9F0200090B8
:101DF0000120CDE90104694628460394FFF774F8F1
:101E000007B030BD3038024000040240FEE7FEE774
:101E1000024610B5002001215FF00A03B2FBF3F483
:101E200003FB1424B2FBF3F204EB00203030491C16
:101E30000429F3D910BD000010B5502080F311889B
:101E4000BFF34F8FBFF36F8F01F0D0FC18B104497F
:101E50004FF080500860002080F3118810BD000012
:101E600004ED00E010B592B030216846FEF74AFB61
:101E700014210CA8FEF746FB18480024016841F025
:101E800080510160006800F0805011901448016892
:101E900041F4804101600068069400F48040119094
:101EA0000220009001200390102004906846FFF764
:101EB000F5FA08B172B6FEE70F20CDE90C044FF435
:101EC0008050CDE90E4000210CA81094FFF7DAF9FC
:101ED000002801D072B6FEE712B010BD40380240B3
:101EE000007000400248016841F4700101607047D1
:101EF00088ED00E00148FFF7F8BC0000D4040020A2
:101F0000F0B50268254C264D264E274F274B4FF043
:101F1000804CA04209D0604507D0A84205D0B0420D
:101F200003D0B84201D0984204D122F0700E4A6822
:101F300042EA0E02A0421BD0604519D0A84217D039
:101F4000B04215D0B84213D0984211D0184DA842D3
:101F50000ED0184DA8420BD0174DA84208D0174DEF
:101F6000A84205D0164DA84202D0164DA84203D172
:101F700022F44075CA682A434D6922F080022A4340
:101F800002608A68C2620A688262A04201D09842F6
:101F900001D10969016301214161F0BD00000140E7
:101FA0000004004000080040000C00400004014014
:101FB000004001400044014000480140001800403A
:101FC000001C004000200040284C0D2640F6FF7504
:101FD0000A272748FEF77AFD64212548FEF720FDF1
:101FE0002348FEF791FC41F288314843B0FBF5F0FD
:101FF000FFF70EFF20601E48FEF7E6FD1C48483044
:10200000FEF764FD1A4864214830FEF709FD1848C0
:102010004830FEF779FC41F288314843B0FBF5F0D7
:10202000FFF7F6FE606012484830FEF7CDFD0F481E
:102030008C38FEF74BFD0D4864218C38FEF7F0FC20
:102040000A488C38FEF760FC41F288314843B0FB07
:10205000F5F0FFF7DDFEA06004488C38FEF7B4FD14
:10206000E6602761642000F08DFAB2E7AC01002041
:10207000900000200A4C4FF0FF354FF47A76294645
:10208000E06800F0D3FA07491422A1F14400FFF7F9
:10209000A5FDE06800F0A2FA304600F073FAEEE722
:1020A00000000020AC0100201E4C1F4F4FF0FF36F7
:1020B000A4F110053146E86800F0B8FA0822194981
:1020C0001A48FFF773FD6078312823D000224021A1
:1020D0003846FFF701F8E07831281DD00022802132
:1020E0003846FEF7F9FF6079312817D00022102119
:1020F0003846FEF7F1FFE079312811D00022202187
:102100003846FEF7E9FFE86800F068FA642000F05E
:1021100039FACFE70122DAE70122E0E70122E6E718
:102120000122ECE7100000200004024068010020BA
:1021300070B5846B2068406994F83D10C0F3C010FE
:102140000025212904D118B1E584204600F0B0F81B
:102150002068406994F83E10C0F38010222904D111
:1021600018B1E585204600F07CF8206C40F01000A6
:1021700020642046FFF77AFC70BD10B50146806BE5
:1021800009680968C9052FD40021C18501680C318F
:1021900051E8002F22F4807241E80023002BF5D192
:1021A0000168143151E8002F22F0010241E80023B8
:1021B000002BF5D10168143151E8002F22F04002C4
:1021C00041E80023002BF5D1202180F83E10016B5F
:1021D000012909D101680C3151E8002F22F01002C9
:1021E00041E80023002BF5D1016B012902D0FFF754
:1021F000F2FC10BD818DFFF738FC10BD10B5806B6F
:10220000016B012902D0FFF7E7FC10BD818D490861
:10221000FFF72BFC10BD10B50146806B09680968FB
:10222000C90516D40021C1840168143151E8002F7A
:1022300022F0800241E80023002BF5D101680C3127
:1022400051E8002F42F0400241E80023002BF5D175
:1022500010BDFFF709FD10BD10B5806BFFF705FD40
:1022600010BD01680C3151E8002F22F4907241E852
:102270000023002BF5D10168143151E8002F22F022
:10228000010241E80023002BF5D1016B012909D19E
:1022900001680C3151E8002F22F0100241E80023C0
:1022A000002BF5D1202180F83E10002101637047FA
:1022B00001680C3151E8002F22F0C00241E80023F0
:1022C000002BF5D1202180F83D10704770B50446F1
:1022D00000680169E26821F44051114301612169FC
:1022E000A068E26908436169114308432168CA682C
:1022F00049F20C639A430243CA6020684169A269AB
:1023000021F440711143416131492068884202D073
:102310003049884202D1FFF77FF801E0FFF76CF8FF
:10232000E2690023192164253226B2F5004F626864
:1023300028D0A0FB0101930F9200FDF7F5FF0146A5
:10234000B0FBF5F06FF01802504301EB800006EB94
:102350000010B0FBF5F000F0F002B1FBF5F002EB7D
:102360000012B1FBF5F06FF01803584301EB800049
:1023700006EB0010B0FBF5F000F00F0021681044F0
:10238000886070BDA0FB010192185B41FDF7CCFF96
:102390000146B0FBF5F00201B1FBF5F06FF0180358
:1023A000584301EB800006EBC000B0FBF5F000F0F5
:1023B000F80002EB4002B1FBF5F0584301EB80005E
:1023C00006EBC000B0FBF5F000F00700D6E7000018
:1023D000001001400014014038B58162828500255B
:1023E000134604460564222084F83E00A26B1C4874
:1023F000D063A26B1B481064A26B1B48D064A06B17
:102400000A4605652168A06B091DFEF735FD2068A9
:1024100001684068009084F83C50206948B1206809
:102420000C3050E8001F41F4807140E80012002A8F
:10243000F5D12068143050E8001F41F0010140E858
:102440000012002AF5D12068143050E8001F41F036
:10245000400140E80012002AF5D1002038BD0000FC
:102460007B210008FD21000831210008FEE7090753
:10247000090E002804DB00F1E02080F8001470470A
:1024800000F00F0000F1E02080F8141D7047EFF31A
:102490000580002800D001207047000098B0FEF7AA
:1024A0002FFEFFF7DFFCFFF773FC2E4800240168C6
:1024B00041F4001101600068224600F400101790FA
:1024C00005210C20FEF7ACFE0C20FEF79BFE00223F
:1024D00005210E20FEF7A4FE0E20FEF793FEFFF767
:1024E000C7FBFFF7F5FBFFF723FC20481E490160FF
:1024F0004FF41651C0E901140C21C460C0E9044135
:102500008461C461FFF7B3FA08B172B6FEE71594AF
:10251000012115A8169400F041F8154C1C2215490C
:10252000E0606846FDF7BCFF0021684600F0B0F8A7
:10253000104920601C221C3107A8FDF7B1FF0021C3
:1025400007A800F0A5F80B4960601C2238310EA8DE
:10255000FDF7A6FF00210EA800F09AF8A06000F099
:1025600018F8FEE7303802400048004068010020BB
:1025700000000020203B000801460020842900D0F4
:10258000C81C704710B500B9012000F06DFC002098
:1025900010BD10B500F004FD002010BD38B5436833
:1025A0004BB1012909D103200022009011460120DE
:1025B00000F0FDFD38BD012901D0002038BD032207
:1025C0000021012000F0D2FD040004D000231A46AF
:1025D000194600F063FE204638BD000038B50024DF
:1025E00005460094FFF753FF90B16946284600F076
:1025F00005FF012801D0FF2038BD009888B10A49A5
:102600004FF080500860BFF34F8FBFF36F8F08E02B
:1026100000231A461946284600F040FE012800D043
:10262000FF24204638BD000004ED00E038B5050069
:102630004FF0000000900FD00024481C0ED001B1D4
:102640000C46FFF724FFB8B16A460021284600F087
:1026500023FF012816D104E0802038BD4FF0FF345D
:10266000EFE7009880B109494FF080500860BFF350
:102670004F8FBFF36F8F07E02146284600F05AFFC7
:10268000012801D0FF2038BD002038BD04ED00E056
:102690007FB50D4604464169B0F9080081B1A169D2
:1026A00071B1FFF769FFD4E905128DE80700D4E99D
:1026B00000102B46226901F060F8039004B070BD51
:1026C000FFF75AFF03A9CDE90001208A2B4682B209
:1026D000D4E9001001F024F8012801D00020EDE732
:1026E0000398EBE72DE9F041184C0F460546E668E4
:1026F0002068001D00F0C6FA38B9206890F82C1048
:1027000001208840216981432161681C07D137B1CC
:102710002168BDE8F0410E48091D00F0F7BA2068B5
:102720003544B5424560216805D2A06BBDE8F04153
:10273000091D00F0D3BA606B091D00F0CFFAA06A42
:10274000854200D2A562BDE8F0810000280000208B
:10275000F80500202DE9F041054600F0E3FA2E4C83
:10276000A068401CA06020682C4F10B1606940B385
:102770002DE02560A068012829D1002606EB8600FF
:1027800007EB800000F09CFA761C072EF6D3234856
:102790008C3000F095FA2148A03000F091FA1F48E3
:1027A000B43000F08DFA1D48C83000F089FA1B489B
:1027B000DC3000F085FA19488C3060631430A06377
:1027C00005E02068E96AC06A884200D82560606A2E
:1027D000401C6062E96A0120226988401043206140
:1027E00001EB810007EB8000291D00F08FFA00F05B
:1027F000B9FA606900280CD02068E96AC06A88428A
:1028000007D207494FF080500860BFF34F8FBFF3E6
:102810006F8FBDE8F0810000280000201C0500201B
:1028200004ED00E030B4026C0B46002A0BD0C16806
:102830001144C1608468A14201D30168C16030BC09
:102840001846FDF7E8BD30BC70472DE9F041856BB7
:10285000174604460026026C82B1C7B1E068FDF756
:10286000DAFDE168206C091AE1602268914202D227
:10287000A168081AE060022F16D017E02068A8B9F6
:10288000A06801F019F806460020A0600EE060681C
:10289000FDF7C1FD216C606808446060A168884252
:1028A00004D32068606001E005B16D1E6D1CA56356
:1028B0003046BDE8F08110B5044690F8510058B19B
:1028C00001280CD002280FD0502080F31188BFF3CC
:1028D0004F8FBFF36F8FFEE7206B00F057FA204653
:1028E000BDE8104000F052BA10BD000010484FF48F
:1028F0007051420706D0C01D0D4920F00700411A53
:10290000C1F570510B4A00230144C2E900030839A4
:10291000183A21F0070111604B600B600B1AC0E9F7
:10292000001393604FF00040536050617047000007
:102930000C0600207C000020144E154CA6F1C807A0
:102940004FF08058DFF84C9012E000BF00F0EAF939
:10295000F068C568281D00F095F9A068401EA060C9
:102960006068401E606000F0FDF92846FFF7A3FF95
:1029700060680028EAD138680128F9D9C9F80080D0
:10298000BFF34F8FBFF36F8FF2E70000E405002025
:102990002800002004ED00E00346009829B1026001
:1029A000C0E90F31012100F035BC0060F8E72DE9E6
:1029B000F0479A46DDE9098481466FF00303206BF6
:1029C00003EB82021044089E20F00707780707D027
:1029D000502080F31188BFF34F8FBFF36F8FFEE756
:1029E000002561B1002023180A5C83F834200A5CBA
:1029F00012B1401C1028F6D384F8435001E084F84B
:102A00003450072E00D30626E662C4E91165201D66
:102A100000F061F904F1180000F05DF92461C6F1DD
:102A200007006462A061E56484F85050524649464C
:102A3000384600F011F92060B8F1000F01D0C8F855
:102A40000040BDE8F087000030B5114900E01146B4
:102A50000A688242FBD34B685C18844203D1406809
:102A600018444860084643681C18944209D1084C31
:102A7000183C2468A24209D052681A4442600A688D
:102A800012680260814200D0086030BD0460F9E73E
:102A90007C00002010B5044600F044F9A06B28B17A
:102AA0005FF0000400F05EF9204610BD0124F9E754
:102AB0000648416B096829B1416BC968C968496812
:102AC000816270474FF0FF31FAE7000028000020D4
:102AD00008484068401C4FF0500080F3118804D033
:102AE000BFF34F8FBFF36F8FFEE7BFF34F8FBFF37F
:102AF0006F8FFEE7840000202DE9F041044600F0CE
:102B000011F994F9455004F1240609E0606A48B1CE
:102B1000304600F063FF08B100F0D4F96D1E6DB2CD
:102B2000002DF3DC4FF0FF3684F8456000F01AF911
:102B300000F0F8F894F9445004F1100709E0206916
:102B400048B1384600F04AFF08B100F0BBF96D1EED
:102B50006DB2002DF3DC84F84460BDE8F04100F074
:102B600001B900002DE9F0410546002700F04EFABA
:102B7000324E306808B9FFF7B9FE706905424ED190
:102B8000C5B3083568070ED005F00700C0F108008E
:102B90000544680707D0502080F31188BFF34F8F9A
:102BA000BFF36F8FFEE72DB37068854237D8234897
:102BB000183001460C6801E020460C466168A942C5
:102BC00002D221680029F7D131688C4227D00768EA
:102BD0002168016060680837411B10290FD960190E
:102BE000420708D0502080F31188BFF34F8FBFF306
:102BF0006F8FFEE713E041606560FFF725FF6168B6
:102C00007068401A7060B268904200D2B06070691B
:102C100001430020C4E90001F068401CF06000F0AE
:102C200017FF780707D0502080F31188BFF34F8F2C
:102C3000BFF36F8FFEE73846BDE8F08164000020E7
:102C40000449086818B10868826C521C82640868DC
:102C5000704700002800002010B5031F4FF080745B
:102C60001C601B1F21F001011960191F044B0B6030
:102C700014390A60091F6FF0020244380A6010BD5F
:102C8000D12A0008D0E9013201699A60D0E9012314
:102C90005A604A68824201D182684A600022026119
:102CA0000868401E0860086870470000034B036016
:102CB00003F15400086080201060704780020020FB
:102CC00000F108014FF0FF32C0E90112C16001615B
:102CD00000210160704700210161704730B50B6829
:102CE0005A1C02D000F1080202E0026904E0224608
:102CF000546825689D42FAD953684B6099608A6090
:102D0000516008610168491C016030BD42684A6039
:102D100093688B6093685960916008610168491CF1
:102D200001607047502080F31188BFF34F8FBFF3CD
:102D30006F8F0A494868401C486001280CD1084838
:102D4000006810F0FF0F07D0502080F31188BFF308
:102D50004F8FBFF36F8FFEE77047000084000020A5
:102D600004ED00E00849486828B1401E486001D1E0
:102D700080F311887047502080F31188BFF34F8F84
:102D8000BFF36F8FFEE700008400002070B50028BD
:102D90002AD0164DA0F1080460686969084207D17D
:102DA000502080F31188BFF34F8FBFF36F8FFEE782
:102DB00022683AB1502080F31188BFF34F8FBFF3E0
:102DC0006F8FFEE78843606000F020F960686968F3
:102DD000084468602046FFF737FE2869401C2861D8
:102DE000BDE8704000F034BE70BD000064000020FB
:102DF0004FF0E02000210161816105494FF47A72B2
:102E00000968B1FBF2F1491E416107210161704778
:102E10002400002010B5FDF763FA114910280ED3E5
:102E200000F1E02090F8F0030A78904207D2502099
:102E300080F31188BFF34F8FBFF36F8FFEE7094810
:102E40000068896800F4E060884207D9502080F368
:102E50001188BFF34F8FBFF36F8FFEE710BD0000E7
:102E6000840000200CED00E010B5020014D00F48E3
:102E7000006B38B1502080F31188BFF34F8FBFF340
:102E80006F8FFEE700F0C2F800211046FFF72AFC22
:102E900000F0DEFD002807D105494FF080500860A2
:102EA000BFF34F8FBFF36F8F10BD000028000020CD
:102EB00004ED00E002490A6A0260C9684160704797
:102EC0002800002001490120C86170472800002027
:102ED00010B50C4650B1094909681831FFF7FEFEDC
:102EE0002046BDE810400121FFF7FCBB502080F3D5
:102EF0001188BFF34F8FBFF36F8FFEE728000020CC
:102F000070B5040047D0A26CA2B1606C884200D3B7
:102F10000146E06A88423ED0012A3CD11E4D2A6813
:102F200094420FD1502080F31188BFF34F8FBFF32D
:102F30006F8FFEE7502080F31188BFF34F8FBFF3F0
:102F40006F8FFEE7E162A269002A02DBC1F107018F
:102F5000A161124E00EB8000616906EB80008142A6
:102F600019D1201DFFF78EFE012130B994F82C00F5
:102F70002A6901FA00F082432A61E06A2A698140E5
:102F80001143296100EB800006EB8000211DBDE8A4
:102F90007040FFF7BBBE70BD280000201C0500205C
:102FA00010B586B00024039405AA04A903A80494CC
:102FB000FFF77CFEDDE903010094CDE90110002359
:102FC0000EA11048059A00F0D8FB0F490028C862EE
:102FD00011D0502080F31188BFF34F8FBFF36F8F54
:102FE0004FF0FF30886201204861CC6006B0BDE838
:102FF000104000F041B806B010BD000049444C45F7
:103000000000000039290008280000200248016B58
:10301000491C016370470000280000201448016B20
:1030200011B10121C16170470021C1610169B1FA8B
:1030300081F1C1F11F0101EB81020E4951F82230EB
:103040006BB101EB820101F108034A6852684A60E2
:103050009A4201D152684A60D1680160704750209D
:1030600080F31188BFF34F8FBFF36F8FFEE700002F
:10307000280000201C0500201CB537480168374A8D
:10308000914207D1502080F31188BFF34F8FBFF3D7
:103090006F8FFEE700683149491E884207D15020F2
:1030A00080F31188BFF34F8FBFF36F8FFEE72C497A
:1030B00008780190FF20087008788DF800009DF8CE
:1030C00000009DF8002000F0F000904207D0502052
:1030D00080F31188BFF34F8FBFF36F8FFEE79DF82A
:1030E0000000204C00F0500020700720A06005E098
:1030F0009DF8002052008DF80020401E9DF8002011
:103100001206F5D4A060032807D0502080F3118860
:10311000BFF34F8FBFF36F8FFEE74FF44070A06097
:10312000019808700C482030016841F4700101607A
:10313000016841F070410160FFF75AFE00206060B5
:10314000FDF796F80848016841F040410160FDF73D
:103150007BF800201CBD000000ED00E071C20F41B3
:1031600000E400E08400002034EF00E0F8B51746EA
:103170000E46050013D005FB06F04830FFF7F2FCC1
:1031800004000AD0002084F8460004F148023B46BF
:10319000314628460094FFF7FFFB2046F8BD50203B
:1031A00080F31188BFF34F8FBFF36F8FFEE738B501
:1031B000049D18B153B1CAB181B120E0502080F311
:1031C0001188BFF34F8FBFF36F8FFEE7502080F35E
:1031D0001188BFF34F8FBFF36F8FFEE7502080F34E
:1031E0001188BFF34F8FBFF36F8FFEE739B15020C7
:1031F00080F31188BFF34F8FBFF36F8FFEE7482432
:103200001C46012384F846302B460094FFF7C4FB8C
:10321000204638BD70B50D46040025D0FFF782FD6D
:10322000D4E90F20216802FB0011A1600021A163F5
:10323000216861600A46D4E90F01401E00FB0121AC
:10324000E16021464FF0FF3001F8440F487004F16F
:1032500010008DB1FFF734FD04F12400FFF730FDBD
:10326000FFF780FD012070BD502080F31188BFF36F
:103270004F8FBFF36F8FFEE721690029F0D000F078
:10328000ADFB0028ECD004494FF080500860BFF33C
:103290004F8FBFF36F8FE3E704ED00E02DE9FF47A9
:1032A00082B01D468A464FF00008040003D0BAF1F0
:1032B000000F08D011E0502080F31188BFF34F8F2A
:1032C000BFF36F8FFEE7206C38B1502080F3118878
:1032D000BFF34F8FBFF36F8FFEE7022D0AD1E06B74
:1032E000012807D0502080F31188BFF34F8FBFF320
:1032F0006F8FFEE700F06CFA3F4F4FF000094FF080
:10330000805648B9049838B1502080F31188BFF333
:103310004F8FBFF36F8FFEE7FFF704FDA06BE16BEC
:10332000884207D3022D05D00498D0B1B8F1000F20
:103330001AD01EE02A4651462046FFF786FA616AF7
:1033400019B104F1240000F049FB20B13E60BFF345
:103350004F8FBFF36F8FFFF705FD012006B0BDE86B
:10336000F087FFF7FFFC22E06846FFF7A3FD4FF070
:103370000108FFF7F7FCFFF749FEFFF7D3FC94F9CC
:103380004400401C01D184F8449094F94500401C4D
:1033900001D184F84590FFF7E5FC04A9684600F0E8
:1033A00085F930B12046FFF7A7FB00F051FB002064
:1033B000D4E7FFF7B7FCA06BE16B884213D1FFF7AE
:1033C000D1FC04F110000499FFF782FD2046FFF7BD
:1033D00093FB00F03DFB00289ED13E60BFF34F8F72
:1033E000BFF36F8F98E7FFF7BDFC2046FFF784FB24
:1033F00000F02EFB90E7000004ED00E070B50E46F3
:10340000040009D0206C78B1502080F31188BFF3FC
:103410004F8FBFF36F8FFEE7502080F31188BFF30B
:103420004F8FBFF36F8FFEE7206848B9A06838B1AF
:10343000502080F31188BFF34F8FBFF36F8FFEE7EB
:10344000FFF7E8FC5020EFF3118580F31188BFF3FC
:103450004F8FBFF36F8FA16BE06B884218D994F93F
:103460004500491CA163411C04D0401C84F8450060
:1034700001200EE0606A0028FAD004F1240000F078
:10348000ADFA0028F4D0002EF2D001203060EFE732
:10349000002085F3118870BD2DE9F04790468946DC
:1034A000040003D0B9F1000F08D011E0502080F3E0
:1034B0001188BFF34F8FBFF36F8FFEE7206C38B1D9
:1034C000502080F31188BFF34F8FBFF36F8FFEE75B
:1034D000FFF7A0FC5020EFF3118680F31188BFF3B3
:1034E0004F8FBFF36F8FA76BF7B194F944504946E4
:1034F0002046FFF797F97F1EA763681C04D06D1C58
:1035000084F84450012010E020690028FAD004F12A
:10351000100000F063FA0028F4D0B8F1000FF1D0E9
:103520000121C8F80010EDE7002086F31188BDE8FE
:10353000F08700002DE9F343002683B004003546F0
:1035400009D0206C78B1502080F31188BFF34F8FE1
:10355000BFF36F8FFEE7502080F31188BFF34F8FCA
:10356000BFF36F8FFEE700F033F9DFF83C814FF0D7
:1035700000094FF0805748B9049838B1502080F3C3
:103580001188BFF34F8FBFF36F8FFEE7FFF7CAFBC2
:10359000A06BC8B1401EA063206810B9FFF750FBB4
:1035A000A060206950B104F1100000F017FA28B1B2
:1035B000C8F80070BFF34F8FBFF36F8FFFF7D2FBD8
:1035C000012005B0BDE8F083049808B166B10FE0B2
:1035D0003DB1502080F31188BFF34F8FBFF36F8F41
:1035E000FEE7FFF7BFFB5DE06846FFF763FC0126DF
:1035F000FFF7B8FBFFF70AFDFFF794FB94F94400CF
:10360000401C01D184F8449094F94500401C01D13C
:1036100084F84590FFF7A6FB04A9684600F046F839
:103620000028204612D0FFF767FA00F011FA204672
:10363000FFF730FA0028A9D09DB3FFF773FB606A4B
:1036400050B3206B0068C0F1070126E0FFF722FAB3
:10365000E0B1206838B9FFF765FBA06800F078F9A1
:103660000546FFF77FFB04F124000499FFF730FCC7
:103670002046FFF741FA00F0EBF9002886D1C8F8A0
:103680000070BFF34F8FBFF36F8F7FE72046FFF7C8
:1036900033FA00F0DDF979E70021A068FFF730FC8C
:1036A0009FE7FFE700208CE704ED00E02DE9F04103
:1036B0000C46050011D0C4B1FFF734FB174BDA6894
:1036C0006E682068911B471C17D02F681B6A9F42A9
:1036D00019D0964217D8012410E0502080F31188A9
:1036E000BFF34F8FBFF36F8FFEE7502080F3118839
:1036F000BFF34F8FBFF36F8FFEE70024FFF732FB5E
:103700002046BDE8F081884205D9401A206028464D
:10371000FFF7D0FBF1E700202060DCE72800002065
:103720002DE9FF5F8346DDE90E87994616468A46F6
:103730009000FFF717FA05001CD05420FFF712FA8B
:10374000040014D00020256384F85100CDE9024024
:10375000CDE900874B46324651465846FFF727F9D8
:103760002046FEF7F7FF012004B0BDE8F09F284691
:10377000FFF70CFB4FF0FF30F6E7F0B585B0DDE961
:103780000B640A9DA6B1DCB154270097266302267C
:1037900084F85160002604AFCDE90246CDE9005718
:1037A000FFF705F92046FEF7D5FF049805B0F0BDF8
:1037B000502080F31188BFF34F8FBFF36F8FFEE768
:1037C000502080F31188BFF34F8FBFF36F8FFEE758
:1037D0000548416919B1006B18B1002070470120FC
:1037E0007047022070470000280000202DE9F041BA
:1037F0002F4C0026206B28B1A069401CA0613046E8
:10380000BDE8F081E5686D1CE56013D1606B006870
:1038100038B1502080F31188BFF34F8FBFF36F8F03
:10382000FEE7606BA16B6163A063206A401C2062AD
:10383000FFF73EF9A06ADFF87C80854209D3606B10
:103840000068A0B1606BC068C7687868854211D213
:10385000A0622068C06A00EB800158F821000128AE
:1038600000D90126E0690028C9D00126C7E74FF03A
:10387000FF30EDE7381DFFF705FAB86A18B107F118
:103880001800FFF7FFF9F96A012022698840104308
:10389000206101EB810108EB8100391DFFF736FA49
:1038A000F86A2168C96A8842C9D30126C7E70000BF
:1038B000280000201C05002070B504004FF0000116
:1038C00040D0214D2868844207D0502080F31188D1
:1038D000BFF34F8FBFF36F8FFEE7A06C38B1401E70
:1038E000A064636CE26A9A422CD040B12AE0502076
:1038F00080F31188BFF34F8FBFF36F8FFEE7201D5A
:10390000FFF7C0F9114A012150B9E06A00EB8003CA
:1039100052F8233023B92B6901FA00F083432B615D
:10392000606CE062C0F10700A061E06A2B69814031
:103930001943296100EB800002EB8000211DFFF795
:10394000E5F90121084670BD280000201C05002073
:1039500070B504004FF0000034D01E4DE16A2A68B3
:10396000D26A91422FD2A069002804DB2868C06A7D
:10397000C0F10700A061184E01EB8101606906EB00
:10398000810188421AD1201DFFF77CF9012130B94D
:1039900094F82C002A6901FA00F082432A61286811
:1039A000C06AE0622A6981401143296100EB80000E
:1039B00006EB8000211DFFF7A9F902E02868C06A24
:1039C000E062012070BD616C2A68D26A9142F8D32E
:1039D00070BD0000280000201C0500202DE9F041EA
:1039E000C068C468ACB104F118000746FFF74AF993
:1039F000154D286B0126A0B139461448FFF786F90A
:103A0000E06A2968C96A88421CD90120EE61BDE8D4
:103A1000F081502080F31188BFF34F8FBFF36F8F79
:103A2000FEE7201DFFF72EF9E16A2A6906FA01F088
:103A30001043286101EB81000449B43901EB800097
:103A4000211DDBE70020E2E728000020D005002050
:103A50002DE9F0472C4D00242746286B38B1FFF79D
:103A600061F9286B401E2863286B40B146E0502066
:103A700080F31188BFF34F8FBFF36F8FFEE7A96804
:103A8000224E0120D1B3A6F1B40980463068E8B1D6
:103A9000F068C46804F11800FFF7F4F8201DFFF780
:103AA000F1F8E06A2A6908FA00F11143296100EB94
:103AB000800109EB8100211DFFF728F9E06A2968E0
:103AC000C96A8842E2D3C5F81C80DFE70CB1FEF773
:103AD000EFFFAC6944B14646FFF788FE00B1EE61E6
:103AE000641EF9D10020A861E86938B108490127AE
:103AF00038070860BFF34F8FBFF36F8FFFF732F9BE
:103B00003846BDE8F087000028000020D0050020DE
:103B100004ED00E04FF04070E1EE100A7047000045
:103B2000AC3B0008C91F00080100000000000000B5
:103B3000800000000000000000000000943B00082E
:103B40007520000800000000000000008000000058
:103B50000000000000000000A03B0008A9200008B1
:103B6000FFFF0000000000008000000000000000D7
:103B700000000000000610160006101600000000ED
:103B8000000000000102030406070809000000000D
:103B9000010203046D795461736B30320000000040
:103BA0006D795461736B30330000000064656661A9
:103BB000756C745461736B00D83B000800000020E2
:103BC00090000000C4010008683C0008900000203C
:103BD000E0470000E00100080000000000000000D5
:103BE00000000000000000000000000000000000D5
:103BF0000100000010000000000000000024F4009C
:103C000000000000000000000000000000000000B4
:103C100000000000000000000000000000000000A4
:103C20000000000000000000000000000000000094
:103C30000000000000000000000000000000000084
:103C40000000000000000000000000000000000074
:103C50000000000000000000000000000000000064
:083C6000AAAAAAAA00000000B4
:040000050800018965
:00000001FF
